{
	"data": {
		"bytecode": {
			"linkReferences": {},
			"object": "60806040526000600455600060055562093a806006553480156200002257600080fd5b5060405162001eb138038062001eb18339810160408190526200004591620000da565b6001600081815581546001600160a01b031916339081179092556040518291907f8be0079c531659141344cd1fd0a4f28419497f9722a3daafe3b4186f6b6457e0908290a350600280546001600160a01b039384166001600160a01b0319918216179091556003805492909316911617905562000111565b80516001600160a01b0381168114620000d557600080fd5b919050565b60008060408385031215620000ed578182fd5b620000f883620000bd565b91506200010860208401620000bd565b90509250929050565b611d9080620001216000396000f3fe608060405234801561001057600080fd5b50600436106101ad5760003560e01c80638980f11f116100ee578063cd3daf9d11610097578063e9fad8ee11610071578063e9fad8ee14610386578063ebe2b12b1461038e578063ecd9ba8214610397578063f2fde38b146103aa57600080fd5b8063cd3daf9d14610355578063d1af0c7d1461035d578063df136d651461037d57600080fd5b8063a694fc3a116100c8578063a694fc3a14610326578063c8f33c9114610339578063cc1a378f1461034257600080fd5b80638980f11f146102d55780638b876347146102e85780638da5cb5b1461030857600080fd5b80633c6b16ab1161015b578063715018a611610135578063715018a61461027757806372f702f31461027f5780637b0a47ee146102c457806380faa57d146102cd57600080fd5b80633c6b16ab146102265780633d18b9121461023957806370a082311461024157600080fd5b80631c1f78eb1161018c5780631c1f78eb146102005780632e1a7d4d14610208578063386a95251461021d57600080fd5b80628cc262146101b25780630700037d146101d857806318160ddd146101f8575b600080fd5b6101c56101c0366004611b0d565b6103bd565b6040519081526020015b60405180910390f35b6101c56101e6366004611b0d565b600a6020526000908152604090205481565b600b546101c5565b6101c5610455565b61021b610216366004611b70565b610473565b005b6101c560065481565b61021b610234366004611b70565b61066b565b61021b610936565b6101c561024f366004611b0d565b73ffffffffffffffffffffffffffffffffffffffff166000908152600c602052604090205490565b61021b610aa4565b60035461029f9073ffffffffffffffffffffffffffffffffffffffff1681565b60405173ffffffffffffffffffffffffffffffffffffffff90911681526020016101cf565b6101c560055481565b6101c5610b94565b61021b6102e3366004611b27565b610ba2565b6101c56102f6366004611b0d565b60096020526000908152604090205481565b60015473ffffffffffffffffffffffffffffffffffffffff1661029f565b61021b610334366004611b70565b610dd8565b6101c560075481565b61021b610350366004611b70565b610fbf565b6101c561119c565b60025461029f9073ffffffffffffffffffffffffffffffffffffffff1681565b6101c560085481565b61021b6111e8565b6101c560045481565b61021b6103a5366004611ba0565b61120b565b61021b6103b8366004611b0d565b6114b2565b73ffffffffffffffffffffffffffffffffffffffff81166000908152600a6020908152604080832054600990925282205461044f919061044990670de0b6b3a764000090610443906104179061041161119c565b90611664565b73ffffffffffffffffffffffffffffffffffffffff88166000908152600c602052604090205490611677565b90611683565b9061168f565b92915050565b600061046e60065460055461167790919063ffffffff16565b905090565b600260005414156104e5576040517f08c379a000000000000000000000000000000000000000000000000000000000815260206004820152601f60248201527f5265656e7472616e637947756172643a207265656e7472616e742063616c6c0060448201526064015b60405180910390fd5b6002600055336104f361119c565b6008556104fe610b94565b60075573ffffffffffffffffffffffffffffffffffffffff81161561055f57610526816103bd565b73ffffffffffffffffffffffffffffffffffffffff82166000908152600a60209081526040808320939093556008546009909152919020555b600082116105c9576040517f08c379a000000000000000000000000000000000000000000000000000000000815260206004820152601160248201527f43616e6e6f74207769746864726177203000000000000000000000000000000060448201526064016104dc565b600b546105d69083611664565b600b55336000908152600c60205260409020546105f39083611664565b336000818152600c602052604090209190915560035461062c9173ffffffffffffffffffffffffffffffffffffffff909116908461169b565b60405182815233907f7084f5476618d8e60b11ef0d7d3f06914655adb8793e28ff7f018d4c76d505d5906020015b60405180910390a250506001600055565b60015473ffffffffffffffffffffffffffffffffffffffff1633146106ec576040517f08c379a000000000000000000000000000000000000000000000000000000000815260206004820181905260248201527f4f776e61626c653a2063616c6c6572206973206e6f7420746865206f776e657260448201526064016104dc565b60006106f661119c565b600855610701610b94565b60075573ffffffffffffffffffffffffffffffffffffffff81161561076257610729816103bd565b73ffffffffffffffffffffffffffffffffffffffff82166000908152600a60209081526040808320939093556008546009909152919020555b600454421061078157600654610779908390611683565b6005556107c4565b6004546000906107919042611664565b905060006107aa6005548361167790919063ffffffff16565b6006549091506107be90610443868461168f565b60055550505b6002546040517f70a0823100000000000000000000000000000000000000000000000000000000815230600482015260009173ffffffffffffffffffffffffffffffffffffffff16906370a082319060240160206040518083038186803b15801561082e57600080fd5b505afa158015610842573d6000803e3d6000fd5b505050506040513d601f19601f820116820180604052508101906108669190611b88565b905061087d6006548261168390919063ffffffff16565b60055411156108e8576040517f08c379a000000000000000000000000000000000000000000000000000000000815260206004820152601860248201527f50726f76696465642072657761726420746f6f2068696768000000000000000060448201526064016104dc565b4260078190556006546108fb919061168f565b6004556040518381527fde88a922e0d3b88b24e9623efeb464919c6bf9f66857a65e2bfcf2ce87a9433d9060200160405180910390a1505050565b600260005414156109a3576040517f08c379a000000000000000000000000000000000000000000000000000000000815260206004820152601f60248201527f5265656e7472616e637947756172643a207265656e7472616e742063616c6c0060448201526064016104dc565b6002600055336109b161119c565b6008556109bc610b94565b60075573ffffffffffffffffffffffffffffffffffffffff811615610a1d576109e4816103bd565b73ffffffffffffffffffffffffffffffffffffffff82166000908152600a60209081526040808320939093556008546009909152919020555b336000908152600a60205260409020548015610a9b57336000818152600a6020526040812055600254610a699173ffffffffffffffffffffffffffffffffffffffff909116908361169b565b60405181815233907fe2403640ba68fed3a2f88b7557551d1993f84b99bb10ff833f0cf8db0c5e04869060200161065a565b50506001600055565b60015473ffffffffffffffffffffffffffffffffffffffff163314610b25576040517f08c379a000000000000000000000000000000000000000000000000000000000815260206004820181905260248201527f4f776e61626c653a2063616c6c6572206973206e6f7420746865206f776e657260448201526064016104dc565b60015460405160009173ffffffffffffffffffffffffffffffffffffffff16907f8be0079c531659141344cd1fd0a4f28419497f9722a3daafe3b4186f6b6457e0908390a3600180547fffffffffffffffffffffffff0000000000000000000000000000000000000000169055565b600061046e42600454611774565b60015473ffffffffffffffffffffffffffffffffffffffff163314610c23576040517f08c379a000000000000000000000000000000000000000000000000000000000815260206004820181905260248201527f4f776e61626c653a2063616c6c6572206973206e6f7420746865206f776e657260448201526064016104dc565b60026000541415610c90576040517f08c379a000000000000000000000000000000000000000000000000000000000815260206004820152601f60248201527f5265656e7472616e637947756172643a207265656e7472616e742063616c6c0060448201526064016104dc565b600260005560035473ffffffffffffffffffffffffffffffffffffffff83811691161415610d40576040517f08c379a000000000000000000000000000000000000000000000000000000000815260206004820152602160248201527f43616e6e6f7420776974686472617720746865207374616b696e6720746f6b6560448201527f6e0000000000000000000000000000000000000000000000000000000000000060648201526084016104dc565b610d80610d6260015473ffffffffffffffffffffffffffffffffffffffff1690565b73ffffffffffffffffffffffffffffffffffffffff8416908361169b565b6040805173ffffffffffffffffffffffffffffffffffffffff84168152602081018390527f8c1256b8896378cd5044f80c202f9772b9d77dc85c8a6eb51967210b09bfaa28910160405180910390a150506001600055565b60026000541415610e45576040517f08c379a000000000000000000000000000000000000000000000000000000000815260206004820152601f60248201527f5265656e7472616e637947756172643a207265656e7472616e742063616c6c0060448201526064016104dc565b600260005533610e5361119c565b600855610e5e610b94565b60075573ffffffffffffffffffffffffffffffffffffffff811615610ebf57610e86816103bd565b73ffffffffffffffffffffffffffffffffffffffff82166000908152600a60209081526040808320939093556008546009909152919020555b60008211610f29576040517f08c379a000000000000000000000000000000000000000000000000000000000815260206004820152600e60248201527f43616e6e6f74207374616b65203000000000000000000000000000000000000060448201526064016104dc565b600b54610f36908361168f565b600b55336000908152600c6020526040902054610f53908361168f565b336000818152600c6020526040902091909155600354610f8d9173ffffffffffffffffffffffffffffffffffffffff90911690308561178a565b60405182815233907f9e71bc8eea02a63969f509818f2dafb9254532904319f9dbda79b67bd34a5f3d9060200161065a565b60015473ffffffffffffffffffffffffffffffffffffffff163314611040576040517f08c379a000000000000000000000000000000000000000000000000000000000815260206004820181905260248201527f4f776e61626c653a2063616c6c6572206973206e6f7420746865206f776e657260448201526064016104dc565b60045442116110f7576040517f08c379a000000000000000000000000000000000000000000000000000000000815260206004820152605860248201527f50726576696f7573207265776172647320706572696f64206d7573742062652060448201527f636f6d706c657465206265666f7265206368616e67696e67207468652064757260648201527f6174696f6e20666f7220746865206e657720706572696f640000000000000000608482015260a4016104dc565b60008111611161576040517f08c379a000000000000000000000000000000000000000000000000000000000815260206004820152601d60248201527f526577617264206475726174696f6e2063616e2774206265207a65726f00000060448201526064016104dc565b60068190556040518181527ffb46ca5a5e06d4540d6387b930a7c978bce0db5f449ec6b3f5d07c6e1d44f2d39060200160405180910390a150565b6000600b54600014156111b0575060085490565b61046e6111df600b54610443670de0b6b3a76400006111d96005546111d9600754610411610b94565b90611677565b6008549061168f565b336000908152600c602052604090205461120190610473565b611209610936565b565b60026000541415611278576040517f08c379a000000000000000000000000000000000000000000000000000000000815260206004820152601f60248201527f5265656e7472616e637947756172643a207265656e7472616e742063616c6c0060448201526064016104dc565b60026000553361128661119c565b600855611291610b94565b60075573ffffffffffffffffffffffffffffffffffffffff8116156112f2576112b9816103bd565b73ffffffffffffffffffffffffffffffffffffffff82166000908152600a60209081526040808320939093556008546009909152919020555b6000861161135c576040517f08c379a000000000000000000000000000000000000000000000000000000000815260206004820152600e60248201527f43616e6e6f74207374616b65203000000000000000000000000000000000000060448201526064016104dc565b600b54611369908761168f565b600b55336000908152600c6020526040902054611386908761168f565b336000818152600c6020526040908190209290925560035491517fd505accf0000000000000000000000000000000000000000000000000000000081526004810191909152306024820152604481018890526064810187905260ff8616608482015260a4810185905260c4810184905273ffffffffffffffffffffffffffffffffffffffff9091169063d505accf9060e401600060405180830381600087803b15801561143257600080fd5b505af1158015611446573d6000803e3d6000fd5b5050600354611470925073ffffffffffffffffffffffffffffffffffffffff16905033308961178a565b60405186815233907f9e71bc8eea02a63969f509818f2dafb9254532904319f9dbda79b67bd34a5f3d9060200160405180910390a25050600160005550505050565b60015473ffffffffffffffffffffffffffffffffffffffff163314611533576040517f08c379a000000000000000000000000000000000000000000000000000000000815260206004820181905260248201527f4f776e61626c653a2063616c6c6572206973206e6f7420746865206f776e657260448201526064016104dc565b73ffffffffffffffffffffffffffffffffffffffff81166115d6576040517f08c379a000000000000000000000000000000000000000000000000000000000815260206004820152602660248201527f4f776e61626c653a206e6577206f776e657220697320746865207a65726f206160448201527f646472657373000000000000000000000000000000000000000000000000000060648201526084016104dc565b60015460405173ffffffffffffffffffffffffffffffffffffffff8084169216907f8be0079c531659141344cd1fd0a4f28419497f9722a3daafe3b4186f6b6457e090600090a3600180547fffffffffffffffffffffffff00000000000000000000000000000000000000001673ffffffffffffffffffffffffffffffffffffffff92909216919091179055565b60006116708284611ce8565b9392505050565b60006116708284611cab565b60006116708284611c72565b60006116708284611c5a565b60405173ffffffffffffffffffffffffffffffffffffffff831660248201526044810182905261176f9084907fa9059cbb00000000000000000000000000000000000000000000000000000000906064015b604080517fffffffffffffffffffffffffffffffffffffffffffffffffffffffffffffffe08184030181529190526020810180517bffffffffffffffffffffffffffffffffffffffffffffffffffffffff167fffffffff00000000000000000000000000000000000000000000000000000000909316929092179091526117ee565b505050565b60008183106117835781611670565b5090919050565b60405173ffffffffffffffffffffffffffffffffffffffff808516602483015283166044820152606481018290526117e89085907f23b872dd00000000000000000000000000000000000000000000000000000000906084016116ed565b50505050565b6000611850826040518060400160405280602081526020017f5361666545524332303a206c6f772d6c6576656c2063616c6c206661696c65648152508573ffffffffffffffffffffffffffffffffffffffff166118fa9092919063ffffffff16565b80519091501561176f578080602001905181019061186e9190611b50565b61176f576040517f08c379a000000000000000000000000000000000000000000000000000000000815260206004820152602a60248201527f5361666545524332303a204552433230206f7065726174696f6e20646964206e60448201527f6f7420737563636565640000000000000000000000000000000000000000000060648201526084016104dc565b60606119098484600085611911565b949350505050565b6060824710156119a3576040517f08c379a000000000000000000000000000000000000000000000000000000000815260206004820152602660248201527f416464726573733a20696e73756666696369656e742062616c616e636520666f60448201527f722063616c6c000000000000000000000000000000000000000000000000000060648201526084016104dc565b843b611a0b576040517f08c379a000000000000000000000000000000000000000000000000000000000815260206004820152601d60248201527f416464726573733a2063616c6c20746f206e6f6e2d636f6e747261637400000060448201526064016104dc565b6000808673ffffffffffffffffffffffffffffffffffffffff168587604051611a349190611bed565b60006040518083038185875af1925050503d8060008114611a71576040519150601f19603f3d011682016040523d82523d6000602084013e611a76565b606091505b5091509150611a86828286611a91565b979650505050505050565b60608315611aa0575081611670565b825115611ab05782518084602001fd5b816040517f08c379a00000000000000000000000000000000000000000000000000000000081526004016104dc9190611c09565b803573ffffffffffffffffffffffffffffffffffffffff81168114611b0857600080fd5b919050565b600060208284031215611b1e578081fd5b61167082611ae4565b60008060408385031215611b39578081fd5b611b4283611ae4565b946020939093013593505050565b600060208284031215611b61578081fd5b81518015158114611670578182fd5b600060208284031215611b81578081fd5b5035919050565b600060208284031215611b99578081fd5b5051919050565b600080600080600060a08688031215611bb7578081fd5b8535945060208601359350604086013560ff81168114611bd5578182fd5b94979396509394606081013594506080013592915050565b60008251611bff818460208701611cff565b9190910192915050565b6020815260008251806020840152611c28816040850160208701611cff565b601f017fffffffffffffffffffffffffffffffffffffffffffffffffffffffffffffffe0169190910160400192915050565b60008219821115611c6d57611c6d611d2b565b500190565b600082611ca6577f4e487b710000000000000000000000000000000000000000000000000000000081526012600452602481fd5b500490565b6000817fffffffffffffffffffffffffffffffffffffffffffffffffffffffffffffffff0483118215151615611ce357611ce3611d2b565b500290565b600082821015611cfa57611cfa611d2b565b500390565b60005b83811015611d1a578181015183820152602001611d02565b838111156117e85750506000910152565b7f4e487b7100000000000000000000000000000000000000000000000000000000600052601160045260246000fdfea26469706673582212200cffe37c0bf6876ddbacf7b9a7c158693aec15d1037c10a65792742f6fc2673964736f6c63430008040033",
			"opcodes": "PUSH1 0x80 PUSH1 0x40 MSTORE PUSH1 0x0 PUSH1 0x4 SSTORE PUSH1 0x0 PUSH1 0x5 SSTORE PUSH3 0x93A80 PUSH1 0x6 SSTORE CALLVALUE DUP1 ISZERO PUSH3 0x22 JUMPI PUSH1 0x0 DUP1 REVERT JUMPDEST POP PUSH1 0x40 MLOAD PUSH3 0x1EB1 CODESIZE SUB DUP1 PUSH3 0x1EB1 DUP4 CODECOPY DUP2 ADD PUSH1 0x40 DUP2 SWAP1 MSTORE PUSH3 0x45 SWAP2 PUSH3 0xDA JUMP JUMPDEST PUSH1 0x1 PUSH1 0x0 DUP2 DUP2 SSTORE DUP2 SLOAD PUSH1 0x1 PUSH1 0x1 PUSH1 0xA0 SHL SUB NOT AND CALLER SWAP1 DUP2 OR SWAP1 SWAP3 SSTORE PUSH1 0x40 MLOAD DUP3 SWAP2 SWAP1 PUSH32 0x8BE0079C531659141344CD1FD0A4F28419497F9722A3DAAFE3B4186F6B6457E0 SWAP1 DUP3 SWAP1 LOG3 POP PUSH1 0x2 DUP1 SLOAD PUSH1 0x1 PUSH1 0x1 PUSH1 0xA0 SHL SUB SWAP4 DUP5 AND PUSH1 0x1 PUSH1 0x1 PUSH1 0xA0 SHL SUB NOT SWAP2 DUP3 AND OR SWAP1 SWAP2 SSTORE PUSH1 0x3 DUP1 SLOAD SWAP3 SWAP1 SWAP4 AND SWAP2 AND OR SWAP1 SSTORE PUSH3 0x111 JUMP JUMPDEST DUP1 MLOAD PUSH1 0x1 PUSH1 0x1 PUSH1 0xA0 SHL SUB DUP2 AND DUP2 EQ PUSH3 0xD5 JUMPI PUSH1 0x0 DUP1 REVERT JUMPDEST SWAP2 SWAP1 POP JUMP JUMPDEST PUSH1 0x0 DUP1 PUSH1 0x40 DUP4 DUP6 SUB SLT ISZERO PUSH3 0xED JUMPI DUP2 DUP3 REVERT JUMPDEST PUSH3 0xF8 DUP4 PUSH3 0xBD JUMP JUMPDEST SWAP2 POP PUSH3 0x108 PUSH1 0x20 DUP5 ADD PUSH3 0xBD JUMP JUMPDEST SWAP1 POP SWAP3 POP SWAP3 SWAP1 POP JUMP JUMPDEST PUSH2 0x1D90 DUP1 PUSH3 0x121 PUSH1 0x0 CODECOPY PUSH1 0x0 RETURN INVALID PUSH1 0x80 PUSH1 0x40 MSTORE CALLVALUE DUP1 ISZERO PUSH2 0x10 JUMPI PUSH1 0x0 DUP1 REVERT JUMPDEST POP PUSH1 0x4 CALLDATASIZE LT PUSH2 0x1AD JUMPI PUSH1 0x0 CALLDATALOAD PUSH1 0xE0 SHR DUP1 PUSH4 0x8980F11F GT PUSH2 0xEE JUMPI DUP1 PUSH4 0xCD3DAF9D GT PUSH2 0x97 JUMPI DUP1 PUSH4 0xE9FAD8EE GT PUSH2 0x71 JUMPI DUP1 PUSH4 0xE9FAD8EE EQ PUSH2 0x386 JUMPI DUP1 PUSH4 0xEBE2B12B EQ PUSH2 0x38E JUMPI DUP1 PUSH4 0xECD9BA82 EQ PUSH2 0x397 JUMPI DUP1 PUSH4 0xF2FDE38B EQ PUSH2 0x3AA JUMPI PUSH1 0x0 DUP1 REVERT JUMPDEST DUP1 PUSH4 0xCD3DAF9D EQ PUSH2 0x355 JUMPI DUP1 PUSH4 0xD1AF0C7D EQ PUSH2 0x35D JUMPI DUP1 PUSH4 0xDF136D65 EQ PUSH2 0x37D JUMPI PUSH1 0x0 DUP1 REVERT JUMPDEST DUP1 PUSH4 0xA694FC3A GT PUSH2 0xC8 JUMPI DUP1 PUSH4 0xA694FC3A EQ PUSH2 0x326 JUMPI DUP1 PUSH4 0xC8F33C91 EQ PUSH2 0x339 JUMPI DUP1 PUSH4 0xCC1A378F EQ PUSH2 0x342 JUMPI PUSH1 0x0 DUP1 REVERT JUMPDEST DUP1 PUSH4 0x8980F11F EQ PUSH2 0x2D5 JUMPI DUP1 PUSH4 0x8B876347 EQ PUSH2 0x2E8 JUMPI DUP1 PUSH4 0x8DA5CB5B EQ PUSH2 0x308 JUMPI PUSH1 0x0 DUP1 REVERT JUMPDEST DUP1 PUSH4 0x3C6B16AB GT PUSH2 0x15B JUMPI DUP1 PUSH4 0x715018A6 GT PUSH2 0x135 JUMPI DUP1 PUSH4 0x715018A6 EQ PUSH2 0x277 JUMPI DUP1 PUSH4 0x72F702F3 EQ PUSH2 0x27F JUMPI DUP1 PUSH4 0x7B0A47EE EQ PUSH2 0x2C4 JUMPI DUP1 PUSH4 0x80FAA57D EQ PUSH2 0x2CD JUMPI PUSH1 0x0 DUP1 REVERT JUMPDEST DUP1 PUSH4 0x3C6B16AB EQ PUSH2 0x226 JUMPI DUP1 PUSH4 0x3D18B912 EQ PUSH2 0x239 JUMPI DUP1 PUSH4 0x70A08231 EQ PUSH2 0x241 JUMPI PUSH1 0x0 DUP1 REVERT JUMPDEST DUP1 PUSH4 0x1C1F78EB GT PUSH2 0x18C JUMPI DUP1 PUSH4 0x1C1F78EB EQ PUSH2 0x200 JUMPI DUP1 PUSH4 0x2E1A7D4D EQ PUSH2 0x208 JUMPI DUP1 PUSH4 0x386A9525 EQ PUSH2 0x21D JUMPI PUSH1 0x0 DUP1 REVERT JUMPDEST DUP1 PUSH3 0x8CC262 EQ PUSH2 0x1B2 JUMPI DUP1 PUSH4 0x700037D EQ PUSH2 0x1D8 JUMPI DUP1 PUSH4 0x18160DDD EQ PUSH2 0x1F8 JUMPI JUMPDEST PUSH1 0x0 DUP1 REVERT JUMPDEST PUSH2 0x1C5 PUSH2 0x1C0 CALLDATASIZE PUSH1 0x4 PUSH2 0x1B0D JUMP JUMPDEST PUSH2 0x3BD JUMP JUMPDEST PUSH1 0x40 MLOAD SWAP1 DUP2 MSTORE PUSH1 0x20 ADD JUMPDEST PUSH1 0x40 MLOAD DUP1 SWAP2 SUB SWAP1 RETURN JUMPDEST PUSH2 0x1C5 PUSH2 0x1E6 CALLDATASIZE PUSH1 0x4 PUSH2 0x1B0D JUMP JUMPDEST PUSH1 0xA PUSH1 0x20 MSTORE PUSH1 0x0 SWAP1 DUP2 MSTORE PUSH1 0x40 SWAP1 KECCAK256 SLOAD DUP2 JUMP JUMPDEST PUSH1 0xB SLOAD PUSH2 0x1C5 JUMP JUMPDEST PUSH2 0x1C5 PUSH2 0x455 JUMP JUMPDEST PUSH2 0x21B PUSH2 0x216 CALLDATASIZE PUSH1 0x4 PUSH2 0x1B70 JUMP JUMPDEST PUSH2 0x473 JUMP JUMPDEST STOP JUMPDEST PUSH2 0x1C5 PUSH1 0x6 SLOAD DUP2 JUMP JUMPDEST PUSH2 0x21B PUSH2 0x234 CALLDATASIZE PUSH1 0x4 PUSH2 0x1B70 JUMP JUMPDEST PUSH2 0x66B JUMP JUMPDEST PUSH2 0x21B PUSH2 0x936 JUMP JUMPDEST PUSH2 0x1C5 PUSH2 0x24F CALLDATASIZE PUSH1 0x4 PUSH2 0x1B0D JUMP JUMPDEST PUSH20 0xFFFFFFFFFFFFFFFFFFFFFFFFFFFFFFFFFFFFFFFF AND PUSH1 0x0 SWAP1 DUP2 MSTORE PUSH1 0xC PUSH1 0x20 MSTORE PUSH1 0x40 SWAP1 KECCAK256 SLOAD SWAP1 JUMP JUMPDEST PUSH2 0x21B PUSH2 0xAA4 JUMP JUMPDEST PUSH1 0x3 SLOAD PUSH2 0x29F SWAP1 PUSH20 0xFFFFFFFFFFFFFFFFFFFFFFFFFFFFFFFFFFFFFFFF AND DUP2 JUMP JUMPDEST PUSH1 0x40 MLOAD PUSH20 0xFFFFFFFFFFFFFFFFFFFFFFFFFFFFFFFFFFFFFFFF SWAP1 SWAP2 AND DUP2 MSTORE PUSH1 0x20 ADD PUSH2 0x1CF JUMP JUMPDEST PUSH2 0x1C5 PUSH1 0x5 SLOAD DUP2 JUMP JUMPDEST PUSH2 0x1C5 PUSH2 0xB94 JUMP JUMPDEST PUSH2 0x21B PUSH2 0x2E3 CALLDATASIZE PUSH1 0x4 PUSH2 0x1B27 JUMP JUMPDEST PUSH2 0xBA2 JUMP JUMPDEST PUSH2 0x1C5 PUSH2 0x2F6 CALLDATASIZE PUSH1 0x4 PUSH2 0x1B0D JUMP JUMPDEST PUSH1 0x9 PUSH1 0x20 MSTORE PUSH1 0x0 SWAP1 DUP2 MSTORE PUSH1 0x40 SWAP1 KECCAK256 SLOAD DUP2 JUMP JUMPDEST PUSH1 0x1 SLOAD PUSH20 0xFFFFFFFFFFFFFFFFFFFFFFFFFFFFFFFFFFFFFFFF AND PUSH2 0x29F JUMP JUMPDEST PUSH2 0x21B PUSH2 0x334 CALLDATASIZE PUSH1 0x4 PUSH2 0x1B70 JUMP JUMPDEST PUSH2 0xDD8 JUMP JUMPDEST PUSH2 0x1C5 PUSH1 0x7 SLOAD DUP2 JUMP JUMPDEST PUSH2 0x21B PUSH2 0x350 CALLDATASIZE PUSH1 0x4 PUSH2 0x1B70 JUMP JUMPDEST PUSH2 0xFBF JUMP JUMPDEST PUSH2 0x1C5 PUSH2 0x119C JUMP JUMPDEST PUSH1 0x2 SLOAD PUSH2 0x29F SWAP1 PUSH20 0xFFFFFFFFFFFFFFFFFFFFFFFFFFFFFFFFFFFFFFFF AND DUP2 JUMP JUMPDEST PUSH2 0x1C5 PUSH1 0x8 SLOAD DUP2 JUMP JUMPDEST PUSH2 0x21B PUSH2 0x11E8 JUMP JUMPDEST PUSH2 0x1C5 PUSH1 0x4 SLOAD DUP2 JUMP JUMPDEST PUSH2 0x21B PUSH2 0x3A5 CALLDATASIZE PUSH1 0x4 PUSH2 0x1BA0 JUMP JUMPDEST PUSH2 0x120B JUMP JUMPDEST PUSH2 0x21B PUSH2 0x3B8 CALLDATASIZE PUSH1 0x4 PUSH2 0x1B0D JUMP JUMPDEST PUSH2 0x14B2 JUMP JUMPDEST PUSH20 0xFFFFFFFFFFFFFFFFFFFFFFFFFFFFFFFFFFFFFFFF DUP2 AND PUSH1 0x0 SWAP1 DUP2 MSTORE PUSH1 0xA PUSH1 0x20 SWAP1 DUP2 MSTORE PUSH1 0x40 DUP1 DUP4 KECCAK256 SLOAD PUSH1 0x9 SWAP1 SWAP3 MSTORE DUP3 KECCAK256 SLOAD PUSH2 0x44F SWAP2 SWAP1 PUSH2 0x449 SWAP1 PUSH8 0xDE0B6B3A7640000 SWAP1 PUSH2 0x443 SWAP1 PUSH2 0x417 SWAP1 PUSH2 0x411 PUSH2 0x119C JUMP JUMPDEST SWAP1 PUSH2 0x1664 JUMP JUMPDEST PUSH20 0xFFFFFFFFFFFFFFFFFFFFFFFFFFFFFFFFFFFFFFFF DUP9 AND PUSH1 0x0 SWAP1 DUP2 MSTORE PUSH1 0xC PUSH1 0x20 MSTORE PUSH1 0x40 SWAP1 KECCAK256 SLOAD SWAP1 PUSH2 0x1677 JUMP JUMPDEST SWAP1 PUSH2 0x1683 JUMP JUMPDEST SWAP1 PUSH2 0x168F JUMP JUMPDEST SWAP3 SWAP2 POP POP JUMP JUMPDEST PUSH1 0x0 PUSH2 0x46E PUSH1 0x6 SLOAD PUSH1 0x5 SLOAD PUSH2 0x1677 SWAP1 SWAP2 SWAP1 PUSH4 0xFFFFFFFF AND JUMP JUMPDEST SWAP1 POP SWAP1 JUMP JUMPDEST PUSH1 0x2 PUSH1 0x0 SLOAD EQ ISZERO PUSH2 0x4E5 JUMPI PUSH1 0x40 MLOAD PUSH32 0x8C379A000000000000000000000000000000000000000000000000000000000 DUP2 MSTORE PUSH1 0x20 PUSH1 0x4 DUP3 ADD MSTORE PUSH1 0x1F PUSH1 0x24 DUP3 ADD MSTORE PUSH32 0x5265656E7472616E637947756172643A207265656E7472616E742063616C6C00 PUSH1 0x44 DUP3 ADD MSTORE PUSH1 0x64 ADD JUMPDEST PUSH1 0x40 MLOAD DUP1 SWAP2 SUB SWAP1 REVERT JUMPDEST PUSH1 0x2 PUSH1 0x0 SSTORE CALLER PUSH2 0x4F3 PUSH2 0x119C JUMP JUMPDEST PUSH1 0x8 SSTORE PUSH2 0x4FE PUSH2 0xB94 JUMP JUMPDEST PUSH1 0x7 SSTORE PUSH20 0xFFFFFFFFFFFFFFFFFFFFFFFFFFFFFFFFFFFFFFFF DUP2 AND ISZERO PUSH2 0x55F JUMPI PUSH2 0x526 DUP2 PUSH2 0x3BD JUMP JUMPDEST PUSH20 0xFFFFFFFFFFFFFFFFFFFFFFFFFFFFFFFFFFFFFFFF DUP3 AND PUSH1 0x0 SWAP1 DUP2 MSTORE PUSH1 0xA PUSH1 0x20 SWAP1 DUP2 MSTORE PUSH1 0x40 DUP1 DUP4 KECCAK256 SWAP4 SWAP1 SWAP4 SSTORE PUSH1 0x8 SLOAD PUSH1 0x9 SWAP1 SWAP2 MSTORE SWAP2 SWAP1 KECCAK256 SSTORE JUMPDEST PUSH1 0x0 DUP3 GT PUSH2 0x5C9 JUMPI PUSH1 0x40 MLOAD PUSH32 0x8C379A000000000000000000000000000000000000000000000000000000000 DUP2 MSTORE PUSH1 0x20 PUSH1 0x4 DUP3 ADD MSTORE PUSH1 0x11 PUSH1 0x24 DUP3 ADD MSTORE PUSH32 0x43616E6E6F742077697468647261772030000000000000000000000000000000 PUSH1 0x44 DUP3 ADD MSTORE PUSH1 0x64 ADD PUSH2 0x4DC JUMP JUMPDEST PUSH1 0xB SLOAD PUSH2 0x5D6 SWAP1 DUP4 PUSH2 0x1664 JUMP JUMPDEST PUSH1 0xB SSTORE CALLER PUSH1 0x0 SWAP1 DUP2 MSTORE PUSH1 0xC PUSH1 0x20 MSTORE PUSH1 0x40 SWAP1 KECCAK256 SLOAD PUSH2 0x5F3 SWAP1 DUP4 PUSH2 0x1664 JUMP JUMPDEST CALLER PUSH1 0x0 DUP2 DUP2 MSTORE PUSH1 0xC PUSH1 0x20 MSTORE PUSH1 0x40 SWAP1 KECCAK256 SWAP2 SWAP1 SWAP2 SSTORE PUSH1 0x3 SLOAD PUSH2 0x62C SWAP2 PUSH20 0xFFFFFFFFFFFFFFFFFFFFFFFFFFFFFFFFFFFFFFFF SWAP1 SWAP2 AND SWAP1 DUP5 PUSH2 0x169B JUMP JUMPDEST PUSH1 0x40 MLOAD DUP3 DUP2 MSTORE CALLER SWAP1 PUSH32 0x7084F5476618D8E60B11EF0D7D3F06914655ADB8793E28FF7F018D4C76D505D5 SWAP1 PUSH1 0x20 ADD JUMPDEST PUSH1 0x40 MLOAD DUP1 SWAP2 SUB SWAP1 LOG2 POP POP PUSH1 0x1 PUSH1 0x0 SSTORE JUMP JUMPDEST PUSH1 0x1 SLOAD PUSH20 0xFFFFFFFFFFFFFFFFFFFFFFFFFFFFFFFFFFFFFFFF AND CALLER EQ PUSH2 0x6EC JUMPI PUSH1 0x40 MLOAD PUSH32 0x8C379A000000000000000000000000000000000000000000000000000000000 DUP2 MSTORE PUSH1 0x20 PUSH1 0x4 DUP3 ADD DUP2 SWAP1 MSTORE PUSH1 0x24 DUP3 ADD MSTORE PUSH32 0x4F776E61626C653A2063616C6C6572206973206E6F7420746865206F776E6572 PUSH1 0x44 DUP3 ADD MSTORE PUSH1 0x64 ADD PUSH2 0x4DC JUMP JUMPDEST PUSH1 0x0 PUSH2 0x6F6 PUSH2 0x119C JUMP JUMPDEST PUSH1 0x8 SSTORE PUSH2 0x701 PUSH2 0xB94 JUMP JUMPDEST PUSH1 0x7 SSTORE PUSH20 0xFFFFFFFFFFFFFFFFFFFFFFFFFFFFFFFFFFFFFFFF DUP2 AND ISZERO PUSH2 0x762 JUMPI PUSH2 0x729 DUP2 PUSH2 0x3BD JUMP JUMPDEST PUSH20 0xFFFFFFFFFFFFFFFFFFFFFFFFFFFFFFFFFFFFFFFF DUP3 AND PUSH1 0x0 SWAP1 DUP2 MSTORE PUSH1 0xA PUSH1 0x20 SWAP1 DUP2 MSTORE PUSH1 0x40 DUP1 DUP4 KECCAK256 SWAP4 SWAP1 SWAP4 SSTORE PUSH1 0x8 SLOAD PUSH1 0x9 SWAP1 SWAP2 MSTORE SWAP2 SWAP1 KECCAK256 SSTORE JUMPDEST PUSH1 0x4 SLOAD TIMESTAMP LT PUSH2 0x781 JUMPI PUSH1 0x6 SLOAD PUSH2 0x779 SWAP1 DUP4 SWAP1 PUSH2 0x1683 JUMP JUMPDEST PUSH1 0x5 SSTORE PUSH2 0x7C4 JUMP JUMPDEST PUSH1 0x4 SLOAD PUSH1 0x0 SWAP1 PUSH2 0x791 SWAP1 TIMESTAMP PUSH2 0x1664 JUMP JUMPDEST SWAP1 POP PUSH1 0x0 PUSH2 0x7AA PUSH1 0x5 SLOAD DUP4 PUSH2 0x1677 SWAP1 SWAP2 SWAP1 PUSH4 0xFFFFFFFF AND JUMP JUMPDEST PUSH1 0x6 SLOAD SWAP1 SWAP2 POP PUSH2 0x7BE SWAP1 PUSH2 0x443 DUP7 DUP5 PUSH2 0x168F JUMP JUMPDEST PUSH1 0x5 SSTORE POP POP JUMPDEST PUSH1 0x2 SLOAD PUSH1 0x40 MLOAD PUSH32 0x70A0823100000000000000000000000000000000000000000000000000000000 DUP2 MSTORE ADDRESS PUSH1 0x4 DUP3 ADD MSTORE PUSH1 0x0 SWAP2 PUSH20 0xFFFFFFFFFFFFFFFFFFFFFFFFFFFFFFFFFFFFFFFF AND SWAP1 PUSH4 0x70A08231 SWAP1 PUSH1 0x24 ADD PUSH1 0x20 PUSH1 0x40 MLOAD DUP1 DUP4 SUB DUP2 DUP7 DUP1 EXTCODESIZE ISZERO DUP1 ISZERO PUSH2 0x82E JUMPI PUSH1 0x0 DUP1 REVERT JUMPDEST POP GAS STATICCALL ISZERO DUP1 ISZERO PUSH2 0x842 JUMPI RETURNDATASIZE PUSH1 0x0 DUP1 RETURNDATACOPY RETURNDATASIZE PUSH1 0x0 REVERT JUMPDEST POP POP POP POP PUSH1 0x40 MLOAD RETURNDATASIZE PUSH1 0x1F NOT PUSH1 0x1F DUP3 ADD AND DUP3 ADD DUP1 PUSH1 0x40 MSTORE POP DUP2 ADD SWAP1 PUSH2 0x866 SWAP2 SWAP1 PUSH2 0x1B88 JUMP JUMPDEST SWAP1 POP PUSH2 0x87D PUSH1 0x6 SLOAD DUP3 PUSH2 0x1683 SWAP1 SWAP2 SWAP1 PUSH4 0xFFFFFFFF AND JUMP JUMPDEST PUSH1 0x5 SLOAD GT ISZERO PUSH2 0x8E8 JUMPI PUSH1 0x40 MLOAD PUSH32 0x8C379A000000000000000000000000000000000000000000000000000000000 DUP2 MSTORE PUSH1 0x20 PUSH1 0x4 DUP3 ADD MSTORE PUSH1 0x18 PUSH1 0x24 DUP3 ADD MSTORE PUSH32 0x50726F76696465642072657761726420746F6F20686967680000000000000000 PUSH1 0x44 DUP3 ADD MSTORE PUSH1 0x64 ADD PUSH2 0x4DC JUMP JUMPDEST TIMESTAMP PUSH1 0x7 DUP2 SWAP1 SSTORE PUSH1 0x6 SLOAD PUSH2 0x8FB SWAP2 SWAP1 PUSH2 0x168F JUMP JUMPDEST PUSH1 0x4 SSTORE PUSH1 0x40 MLOAD DUP4 DUP2 MSTORE PUSH32 0xDE88A922E0D3B88B24E9623EFEB464919C6BF9F66857A65E2BFCF2CE87A9433D SWAP1 PUSH1 0x20 ADD PUSH1 0x40 MLOAD DUP1 SWAP2 SUB SWAP1 LOG1 POP POP POP JUMP JUMPDEST PUSH1 0x2 PUSH1 0x0 SLOAD EQ ISZERO PUSH2 0x9A3 JUMPI PUSH1 0x40 MLOAD PUSH32 0x8C379A000000000000000000000000000000000000000000000000000000000 DUP2 MSTORE PUSH1 0x20 PUSH1 0x4 DUP3 ADD MSTORE PUSH1 0x1F PUSH1 0x24 DUP3 ADD MSTORE PUSH32 0x5265656E7472616E637947756172643A207265656E7472616E742063616C6C00 PUSH1 0x44 DUP3 ADD MSTORE PUSH1 0x64 ADD PUSH2 0x4DC JUMP JUMPDEST PUSH1 0x2 PUSH1 0x0 SSTORE CALLER PUSH2 0x9B1 PUSH2 0x119C JUMP JUMPDEST PUSH1 0x8 SSTORE PUSH2 0x9BC PUSH2 0xB94 JUMP JUMPDEST PUSH1 0x7 SSTORE PUSH20 0xFFFFFFFFFFFFFFFFFFFFFFFFFFFFFFFFFFFFFFFF DUP2 AND ISZERO PUSH2 0xA1D JUMPI PUSH2 0x9E4 DUP2 PUSH2 0x3BD JUMP JUMPDEST PUSH20 0xFFFFFFFFFFFFFFFFFFFFFFFFFFFFFFFFFFFFFFFF DUP3 AND PUSH1 0x0 SWAP1 DUP2 MSTORE PUSH1 0xA PUSH1 0x20 SWAP1 DUP2 MSTORE PUSH1 0x40 DUP1 DUP4 KECCAK256 SWAP4 SWAP1 SWAP4 SSTORE PUSH1 0x8 SLOAD PUSH1 0x9 SWAP1 SWAP2 MSTORE SWAP2 SWAP1 KECCAK256 SSTORE JUMPDEST CALLER PUSH1 0x0 SWAP1 DUP2 MSTORE PUSH1 0xA PUSH1 0x20 MSTORE PUSH1 0x40 SWAP1 KECCAK256 SLOAD DUP1 ISZERO PUSH2 0xA9B JUMPI CALLER PUSH1 0x0 DUP2 DUP2 MSTORE PUSH1 0xA PUSH1 0x20 MSTORE PUSH1 0x40 DUP2 KECCAK256 SSTORE PUSH1 0x2 SLOAD PUSH2 0xA69 SWAP2 PUSH20 0xFFFFFFFFFFFFFFFFFFFFFFFFFFFFFFFFFFFFFFFF SWAP1 SWAP2 AND SWAP1 DUP4 PUSH2 0x169B JUMP JUMPDEST PUSH1 0x40 MLOAD DUP2 DUP2 MSTORE CALLER SWAP1 PUSH32 0xE2403640BA68FED3A2F88B7557551D1993F84B99BB10FF833F0CF8DB0C5E0486 SWAP1 PUSH1 0x20 ADD PUSH2 0x65A JUMP JUMPDEST POP POP PUSH1 0x1 PUSH1 0x0 SSTORE JUMP JUMPDEST PUSH1 0x1 SLOAD PUSH20 0xFFFFFFFFFFFFFFFFFFFFFFFFFFFFFFFFFFFFFFFF AND CALLER EQ PUSH2 0xB25 JUMPI PUSH1 0x40 MLOAD PUSH32 0x8C379A000000000000000000000000000000000000000000000000000000000 DUP2 MSTORE PUSH1 0x20 PUSH1 0x4 DUP3 ADD DUP2 SWAP1 MSTORE PUSH1 0x24 DUP3 ADD MSTORE PUSH32 0x4F776E61626C653A2063616C6C6572206973206E6F7420746865206F776E6572 PUSH1 0x44 DUP3 ADD MSTORE PUSH1 0x64 ADD PUSH2 0x4DC JUMP JUMPDEST PUSH1 0x1 SLOAD PUSH1 0x40 MLOAD PUSH1 0x0 SWAP2 PUSH20 0xFFFFFFFFFFFFFFFFFFFFFFFFFFFFFFFFFFFFFFFF AND SWAP1 PUSH32 0x8BE0079C531659141344CD1FD0A4F28419497F9722A3DAAFE3B4186F6B6457E0 SWAP1 DUP4 SWAP1 LOG3 PUSH1 0x1 DUP1 SLOAD PUSH32 0xFFFFFFFFFFFFFFFFFFFFFFFF0000000000000000000000000000000000000000 AND SWAP1 SSTORE JUMP JUMPDEST PUSH1 0x0 PUSH2 0x46E TIMESTAMP PUSH1 0x4 SLOAD PUSH2 0x1774 JUMP JUMPDEST PUSH1 0x1 SLOAD PUSH20 0xFFFFFFFFFFFFFFFFFFFFFFFFFFFFFFFFFFFFFFFF AND CALLER EQ PUSH2 0xC23 JUMPI PUSH1 0x40 MLOAD PUSH32 0x8C379A000000000000000000000000000000000000000000000000000000000 DUP2 MSTORE PUSH1 0x20 PUSH1 0x4 DUP3 ADD DUP2 SWAP1 MSTORE PUSH1 0x24 DUP3 ADD MSTORE PUSH32 0x4F776E61626C653A2063616C6C6572206973206E6F7420746865206F776E6572 PUSH1 0x44 DUP3 ADD MSTORE PUSH1 0x64 ADD PUSH2 0x4DC JUMP JUMPDEST PUSH1 0x2 PUSH1 0x0 SLOAD EQ ISZERO PUSH2 0xC90 JUMPI PUSH1 0x40 MLOAD PUSH32 0x8C379A000000000000000000000000000000000000000000000000000000000 DUP2 MSTORE PUSH1 0x20 PUSH1 0x4 DUP3 ADD MSTORE PUSH1 0x1F PUSH1 0x24 DUP3 ADD MSTORE PUSH32 0x5265656E7472616E637947756172643A207265656E7472616E742063616C6C00 PUSH1 0x44 DUP3 ADD MSTORE PUSH1 0x64 ADD PUSH2 0x4DC JUMP JUMPDEST PUSH1 0x2 PUSH1 0x0 SSTORE PUSH1 0x3 SLOAD PUSH20 0xFFFFFFFFFFFFFFFFFFFFFFFFFFFFFFFFFFFFFFFF DUP4 DUP2 AND SWAP2 AND EQ ISZERO PUSH2 0xD40 JUMPI PUSH1 0x40 MLOAD PUSH32 0x8C379A000000000000000000000000000000000000000000000000000000000 DUP2 MSTORE PUSH1 0x20 PUSH1 0x4 DUP3 ADD MSTORE PUSH1 0x21 PUSH1 0x24 DUP3 ADD MSTORE PUSH32 0x43616E6E6F7420776974686472617720746865207374616B696E6720746F6B65 PUSH1 0x44 DUP3 ADD MSTORE PUSH32 0x6E00000000000000000000000000000000000000000000000000000000000000 PUSH1 0x64 DUP3 ADD MSTORE PUSH1 0x84 ADD PUSH2 0x4DC JUMP JUMPDEST PUSH2 0xD80 PUSH2 0xD62 PUSH1 0x1 SLOAD PUSH20 0xFFFFFFFFFFFFFFFFFFFFFFFFFFFFFFFFFFFFFFFF AND SWAP1 JUMP JUMPDEST PUSH20 0xFFFFFFFFFFFFFFFFFFFFFFFFFFFFFFFFFFFFFFFF DUP5 AND SWAP1 DUP4 PUSH2 0x169B JUMP JUMPDEST PUSH1 0x40 DUP1 MLOAD PUSH20 0xFFFFFFFFFFFFFFFFFFFFFFFFFFFFFFFFFFFFFFFF DUP5 AND DUP2 MSTORE PUSH1 0x20 DUP2 ADD DUP4 SWAP1 MSTORE PUSH32 0x8C1256B8896378CD5044F80C202F9772B9D77DC85C8A6EB51967210B09BFAA28 SWAP2 ADD PUSH1 0x40 MLOAD DUP1 SWAP2 SUB SWAP1 LOG1 POP POP PUSH1 0x1 PUSH1 0x0 SSTORE JUMP JUMPDEST PUSH1 0x2 PUSH1 0x0 SLOAD EQ ISZERO PUSH2 0xE45 JUMPI PUSH1 0x40 MLOAD PUSH32 0x8C379A000000000000000000000000000000000000000000000000000000000 DUP2 MSTORE PUSH1 0x20 PUSH1 0x4 DUP3 ADD MSTORE PUSH1 0x1F PUSH1 0x24 DUP3 ADD MSTORE PUSH32 0x5265656E7472616E637947756172643A207265656E7472616E742063616C6C00 PUSH1 0x44 DUP3 ADD MSTORE PUSH1 0x64 ADD PUSH2 0x4DC JUMP JUMPDEST PUSH1 0x2 PUSH1 0x0 SSTORE CALLER PUSH2 0xE53 PUSH2 0x119C JUMP JUMPDEST PUSH1 0x8 SSTORE PUSH2 0xE5E PUSH2 0xB94 JUMP JUMPDEST PUSH1 0x7 SSTORE PUSH20 0xFFFFFFFFFFFFFFFFFFFFFFFFFFFFFFFFFFFFFFFF DUP2 AND ISZERO PUSH2 0xEBF JUMPI PUSH2 0xE86 DUP2 PUSH2 0x3BD JUMP JUMPDEST PUSH20 0xFFFFFFFFFFFFFFFFFFFFFFFFFFFFFFFFFFFFFFFF DUP3 AND PUSH1 0x0 SWAP1 DUP2 MSTORE PUSH1 0xA PUSH1 0x20 SWAP1 DUP2 MSTORE PUSH1 0x40 DUP1 DUP4 KECCAK256 SWAP4 SWAP1 SWAP4 SSTORE PUSH1 0x8 SLOAD PUSH1 0x9 SWAP1 SWAP2 MSTORE SWAP2 SWAP1 KECCAK256 SSTORE JUMPDEST PUSH1 0x0 DUP3 GT PUSH2 0xF29 JUMPI PUSH1 0x40 MLOAD PUSH32 0x8C379A000000000000000000000000000000000000000000000000000000000 DUP2 MSTORE PUSH1 0x20 PUSH1 0x4 DUP3 ADD MSTORE PUSH1 0xE PUSH1 0x24 DUP3 ADD MSTORE PUSH32 0x43616E6E6F74207374616B652030000000000000000000000000000000000000 PUSH1 0x44 DUP3 ADD MSTORE PUSH1 0x64 ADD PUSH2 0x4DC JUMP JUMPDEST PUSH1 0xB SLOAD PUSH2 0xF36 SWAP1 DUP4 PUSH2 0x168F JUMP JUMPDEST PUSH1 0xB SSTORE CALLER PUSH1 0x0 SWAP1 DUP2 MSTORE PUSH1 0xC PUSH1 0x20 MSTORE PUSH1 0x40 SWAP1 KECCAK256 SLOAD PUSH2 0xF53 SWAP1 DUP4 PUSH2 0x168F JUMP JUMPDEST CALLER PUSH1 0x0 DUP2 DUP2 MSTORE PUSH1 0xC PUSH1 0x20 MSTORE PUSH1 0x40 SWAP1 KECCAK256 SWAP2 SWAP1 SWAP2 SSTORE PUSH1 0x3 SLOAD PUSH2 0xF8D SWAP2 PUSH20 0xFFFFFFFFFFFFFFFFFFFFFFFFFFFFFFFFFFFFFFFF SWAP1 SWAP2 AND SWAP1 ADDRESS DUP6 PUSH2 0x178A JUMP JUMPDEST PUSH1 0x40 MLOAD DUP3 DUP2 MSTORE CALLER SWAP1 PUSH32 0x9E71BC8EEA02A63969F509818F2DAFB9254532904319F9DBDA79B67BD34A5F3D SWAP1 PUSH1 0x20 ADD PUSH2 0x65A JUMP JUMPDEST PUSH1 0x1 SLOAD PUSH20 0xFFFFFFFFFFFFFFFFFFFFFFFFFFFFFFFFFFFFFFFF AND CALLER EQ PUSH2 0x1040 JUMPI PUSH1 0x40 MLOAD PUSH32 0x8C379A000000000000000000000000000000000000000000000000000000000 DUP2 MSTORE PUSH1 0x20 PUSH1 0x4 DUP3 ADD DUP2 SWAP1 MSTORE PUSH1 0x24 DUP3 ADD MSTORE PUSH32 0x4F776E61626C653A2063616C6C6572206973206E6F7420746865206F776E6572 PUSH1 0x44 DUP3 ADD MSTORE PUSH1 0x64 ADD PUSH2 0x4DC JUMP JUMPDEST PUSH1 0x4 SLOAD TIMESTAMP GT PUSH2 0x10F7 JUMPI PUSH1 0x40 MLOAD PUSH32 0x8C379A000000000000000000000000000000000000000000000000000000000 DUP2 MSTORE PUSH1 0x20 PUSH1 0x4 DUP3 ADD MSTORE PUSH1 0x58 PUSH1 0x24 DUP3 ADD MSTORE PUSH32 0x50726576696F7573207265776172647320706572696F64206D75737420626520 PUSH1 0x44 DUP3 ADD MSTORE PUSH32 0x636F6D706C657465206265666F7265206368616E67696E672074686520647572 PUSH1 0x64 DUP3 ADD MSTORE PUSH32 0x6174696F6E20666F7220746865206E657720706572696F640000000000000000 PUSH1 0x84 DUP3 ADD MSTORE PUSH1 0xA4 ADD PUSH2 0x4DC JUMP JUMPDEST PUSH1 0x0 DUP2 GT PUSH2 0x1161 JUMPI PUSH1 0x40 MLOAD PUSH32 0x8C379A000000000000000000000000000000000000000000000000000000000 DUP2 MSTORE PUSH1 0x20 PUSH1 0x4 DUP3 ADD MSTORE PUSH1 0x1D PUSH1 0x24 DUP3 ADD MSTORE PUSH32 0x526577617264206475726174696F6E2063616E2774206265207A65726F000000 PUSH1 0x44 DUP3 ADD MSTORE PUSH1 0x64 ADD PUSH2 0x4DC JUMP JUMPDEST PUSH1 0x6 DUP2 SWAP1 SSTORE PUSH1 0x40 MLOAD DUP2 DUP2 MSTORE PUSH32 0xFB46CA5A5E06D4540D6387B930A7C978BCE0DB5F449EC6B3F5D07C6E1D44F2D3 SWAP1 PUSH1 0x20 ADD PUSH1 0x40 MLOAD DUP1 SWAP2 SUB SWAP1 LOG1 POP JUMP JUMPDEST PUSH1 0x0 PUSH1 0xB SLOAD PUSH1 0x0 EQ ISZERO PUSH2 0x11B0 JUMPI POP PUSH1 0x8 SLOAD SWAP1 JUMP JUMPDEST PUSH2 0x46E PUSH2 0x11DF PUSH1 0xB SLOAD PUSH2 0x443 PUSH8 0xDE0B6B3A7640000 PUSH2 0x11D9 PUSH1 0x5 SLOAD PUSH2 0x11D9 PUSH1 0x7 SLOAD PUSH2 0x411 PUSH2 0xB94 JUMP JUMPDEST SWAP1 PUSH2 0x1677 JUMP JUMPDEST PUSH1 0x8 SLOAD SWAP1 PUSH2 0x168F JUMP JUMPDEST CALLER PUSH1 0x0 SWAP1 DUP2 MSTORE PUSH1 0xC PUSH1 0x20 MSTORE PUSH1 0x40 SWAP1 KECCAK256 SLOAD PUSH2 0x1201 SWAP1 PUSH2 0x473 JUMP JUMPDEST PUSH2 0x1209 PUSH2 0x936 JUMP JUMPDEST JUMP JUMPDEST PUSH1 0x2 PUSH1 0x0 SLOAD EQ ISZERO PUSH2 0x1278 JUMPI PUSH1 0x40 MLOAD PUSH32 0x8C379A000000000000000000000000000000000000000000000000000000000 DUP2 MSTORE PUSH1 0x20 PUSH1 0x4 DUP3 ADD MSTORE PUSH1 0x1F PUSH1 0x24 DUP3 ADD MSTORE PUSH32 0x5265656E7472616E637947756172643A207265656E7472616E742063616C6C00 PUSH1 0x44 DUP3 ADD MSTORE PUSH1 0x64 ADD PUSH2 0x4DC JUMP JUMPDEST PUSH1 0x2 PUSH1 0x0 SSTORE CALLER PUSH2 0x1286 PUSH2 0x119C JUMP JUMPDEST PUSH1 0x8 SSTORE PUSH2 0x1291 PUSH2 0xB94 JUMP JUMPDEST PUSH1 0x7 SSTORE PUSH20 0xFFFFFFFFFFFFFFFFFFFFFFFFFFFFFFFFFFFFFFFF DUP2 AND ISZERO PUSH2 0x12F2 JUMPI PUSH2 0x12B9 DUP2 PUSH2 0x3BD JUMP JUMPDEST PUSH20 0xFFFFFFFFFFFFFFFFFFFFFFFFFFFFFFFFFFFFFFFF DUP3 AND PUSH1 0x0 SWAP1 DUP2 MSTORE PUSH1 0xA PUSH1 0x20 SWAP1 DUP2 MSTORE PUSH1 0x40 DUP1 DUP4 KECCAK256 SWAP4 SWAP1 SWAP4 SSTORE PUSH1 0x8 SLOAD PUSH1 0x9 SWAP1 SWAP2 MSTORE SWAP2 SWAP1 KECCAK256 SSTORE JUMPDEST PUSH1 0x0 DUP7 GT PUSH2 0x135C JUMPI PUSH1 0x40 MLOAD PUSH32 0x8C379A000000000000000000000000000000000000000000000000000000000 DUP2 MSTORE PUSH1 0x20 PUSH1 0x4 DUP3 ADD MSTORE PUSH1 0xE PUSH1 0x24 DUP3 ADD MSTORE PUSH32 0x43616E6E6F74207374616B652030000000000000000000000000000000000000 PUSH1 0x44 DUP3 ADD MSTORE PUSH1 0x64 ADD PUSH2 0x4DC JUMP JUMPDEST PUSH1 0xB SLOAD PUSH2 0x1369 SWAP1 DUP8 PUSH2 0x168F JUMP JUMPDEST PUSH1 0xB SSTORE CALLER PUSH1 0x0 SWAP1 DUP2 MSTORE PUSH1 0xC PUSH1 0x20 MSTORE PUSH1 0x40 SWAP1 KECCAK256 SLOAD PUSH2 0x1386 SWAP1 DUP8 PUSH2 0x168F JUMP JUMPDEST CALLER PUSH1 0x0 DUP2 DUP2 MSTORE PUSH1 0xC PUSH1 0x20 MSTORE PUSH1 0x40 SWAP1 DUP2 SWAP1 KECCAK256 SWAP3 SWAP1 SWAP3 SSTORE PUSH1 0x3 SLOAD SWAP2 MLOAD PUSH32 0xD505ACCF00000000000000000000000000000000000000000000000000000000 DUP2 MSTORE PUSH1 0x4 DUP2 ADD SWAP2 SWAP1 SWAP2 MSTORE ADDRESS PUSH1 0x24 DUP3 ADD MSTORE PUSH1 0x44 DUP2 ADD DUP9 SWAP1 MSTORE PUSH1 0x64 DUP2 ADD DUP8 SWAP1 MSTORE PUSH1 0xFF DUP7 AND PUSH1 0x84 DUP3 ADD MSTORE PUSH1 0xA4 DUP2 ADD DUP6 SWAP1 MSTORE PUSH1 0xC4 DUP2 ADD DUP5 SWAP1 MSTORE PUSH20 0xFFFFFFFFFFFFFFFFFFFFFFFFFFFFFFFFFFFFFFFF SWAP1 SWAP2 AND SWAP1 PUSH4 0xD505ACCF SWAP1 PUSH1 0xE4 ADD PUSH1 0x0 PUSH1 0x40 MLOAD DUP1 DUP4 SUB DUP2 PUSH1 0x0 DUP8 DUP1 EXTCODESIZE ISZERO DUP1 ISZERO PUSH2 0x1432 JUMPI PUSH1 0x0 DUP1 REVERT JUMPDEST POP GAS CALL ISZERO DUP1 ISZERO PUSH2 0x1446 JUMPI RETURNDATASIZE PUSH1 0x0 DUP1 RETURNDATACOPY RETURNDATASIZE PUSH1 0x0 REVERT JUMPDEST POP POP PUSH1 0x3 SLOAD PUSH2 0x1470 SWAP3 POP PUSH20 0xFFFFFFFFFFFFFFFFFFFFFFFFFFFFFFFFFFFFFFFF AND SWAP1 POP CALLER ADDRESS DUP10 PUSH2 0x178A JUMP JUMPDEST PUSH1 0x40 MLOAD DUP7 DUP2 MSTORE CALLER SWAP1 PUSH32 0x9E71BC8EEA02A63969F509818F2DAFB9254532904319F9DBDA79B67BD34A5F3D SWAP1 PUSH1 0x20 ADD PUSH1 0x40 MLOAD DUP1 SWAP2 SUB SWAP1 LOG2 POP POP PUSH1 0x1 PUSH1 0x0 SSTORE POP POP POP POP JUMP JUMPDEST PUSH1 0x1 SLOAD PUSH20 0xFFFFFFFFFFFFFFFFFFFFFFFFFFFFFFFFFFFFFFFF AND CALLER EQ PUSH2 0x1533 JUMPI PUSH1 0x40 MLOAD PUSH32 0x8C379A000000000000000000000000000000000000000000000000000000000 DUP2 MSTORE PUSH1 0x20 PUSH1 0x4 DUP3 ADD DUP2 SWAP1 MSTORE PUSH1 0x24 DUP3 ADD MSTORE PUSH32 0x4F776E61626C653A2063616C6C6572206973206E6F7420746865206F776E6572 PUSH1 0x44 DUP3 ADD MSTORE PUSH1 0x64 ADD PUSH2 0x4DC JUMP JUMPDEST PUSH20 0xFFFFFFFFFFFFFFFFFFFFFFFFFFFFFFFFFFFFFFFF DUP2 AND PUSH2 0x15D6 JUMPI PUSH1 0x40 MLOAD PUSH32 0x8C379A000000000000000000000000000000000000000000000000000000000 DUP2 MSTORE PUSH1 0x20 PUSH1 0x4 DUP3 ADD MSTORE PUSH1 0x26 PUSH1 0x24 DUP3 ADD MSTORE PUSH32 0x4F776E61626C653A206E6577206F776E657220697320746865207A65726F2061 PUSH1 0x44 DUP3 ADD MSTORE PUSH32 0x6464726573730000000000000000000000000000000000000000000000000000 PUSH1 0x64 DUP3 ADD MSTORE PUSH1 0x84 ADD PUSH2 0x4DC JUMP JUMPDEST PUSH1 0x1 SLOAD PUSH1 0x40 MLOAD PUSH20 0xFFFFFFFFFFFFFFFFFFFFFFFFFFFFFFFFFFFFFFFF DUP1 DUP5 AND SWAP3 AND SWAP1 PUSH32 0x8BE0079C531659141344CD1FD0A4F28419497F9722A3DAAFE3B4186F6B6457E0 SWAP1 PUSH1 0x0 SWAP1 LOG3 PUSH1 0x1 DUP1 SLOAD PUSH32 0xFFFFFFFFFFFFFFFFFFFFFFFF0000000000000000000000000000000000000000 AND PUSH20 0xFFFFFFFFFFFFFFFFFFFFFFFFFFFFFFFFFFFFFFFF SWAP3 SWAP1 SWAP3 AND SWAP2 SWAP1 SWAP2 OR SWAP1 SSTORE JUMP JUMPDEST PUSH1 0x0 PUSH2 0x1670 DUP3 DUP5 PUSH2 0x1CE8 JUMP JUMPDEST SWAP4 SWAP3 POP POP POP JUMP JUMPDEST PUSH1 0x0 PUSH2 0x1670 DUP3 DUP5 PUSH2 0x1CAB JUMP JUMPDEST PUSH1 0x0 PUSH2 0x1670 DUP3 DUP5 PUSH2 0x1C72 JUMP JUMPDEST PUSH1 0x0 PUSH2 0x1670 DUP3 DUP5 PUSH2 0x1C5A JUMP JUMPDEST PUSH1 0x40 MLOAD PUSH20 0xFFFFFFFFFFFFFFFFFFFFFFFFFFFFFFFFFFFFFFFF DUP4 AND PUSH1 0x24 DUP3 ADD MSTORE PUSH1 0x44 DUP2 ADD DUP3 SWAP1 MSTORE PUSH2 0x176F SWAP1 DUP5 SWAP1 PUSH32 0xA9059CBB00000000000000000000000000000000000000000000000000000000 SWAP1 PUSH1 0x64 ADD JUMPDEST PUSH1 0x40 DUP1 MLOAD PUSH32 0xFFFFFFFFFFFFFFFFFFFFFFFFFFFFFFFFFFFFFFFFFFFFFFFFFFFFFFFFFFFFFFE0 DUP2 DUP5 SUB ADD DUP2 MSTORE SWAP2 SWAP1 MSTORE PUSH1 0x20 DUP2 ADD DUP1 MLOAD PUSH28 0xFFFFFFFFFFFFFFFFFFFFFFFFFFFFFFFFFFFFFFFFFFFFFFFFFFFFFFFF AND PUSH32 0xFFFFFFFF00000000000000000000000000000000000000000000000000000000 SWAP1 SWAP4 AND SWAP3 SWAP1 SWAP3 OR SWAP1 SWAP2 MSTORE PUSH2 0x17EE JUMP JUMPDEST POP POP POP JUMP JUMPDEST PUSH1 0x0 DUP2 DUP4 LT PUSH2 0x1783 JUMPI DUP2 PUSH2 0x1670 JUMP JUMPDEST POP SWAP1 SWAP2 SWAP1 POP JUMP JUMPDEST PUSH1 0x40 MLOAD PUSH20 0xFFFFFFFFFFFFFFFFFFFFFFFFFFFFFFFFFFFFFFFF DUP1 DUP6 AND PUSH1 0x24 DUP4 ADD MSTORE DUP4 AND PUSH1 0x44 DUP3 ADD MSTORE PUSH1 0x64 DUP2 ADD DUP3 SWAP1 MSTORE PUSH2 0x17E8 SWAP1 DUP6 SWAP1 PUSH32 0x23B872DD00000000000000000000000000000000000000000000000000000000 SWAP1 PUSH1 0x84 ADD PUSH2 0x16ED JUMP JUMPDEST POP POP POP POP JUMP JUMPDEST PUSH1 0x0 PUSH2 0x1850 DUP3 PUSH1 0x40 MLOAD DUP1 PUSH1 0x40 ADD PUSH1 0x40 MSTORE DUP1 PUSH1 0x20 DUP2 MSTORE PUSH1 0x20 ADD PUSH32 0x5361666545524332303A206C6F772D6C6576656C2063616C6C206661696C6564 DUP2 MSTORE POP DUP6 PUSH20 0xFFFFFFFFFFFFFFFFFFFFFFFFFFFFFFFFFFFFFFFF AND PUSH2 0x18FA SWAP1 SWAP3 SWAP2 SWAP1 PUSH4 0xFFFFFFFF AND JUMP JUMPDEST DUP1 MLOAD SWAP1 SWAP2 POP ISZERO PUSH2 0x176F JUMPI DUP1 DUP1 PUSH1 0x20 ADD SWAP1 MLOAD DUP2 ADD SWAP1 PUSH2 0x186E SWAP2 SWAP1 PUSH2 0x1B50 JUMP JUMPDEST PUSH2 0x176F JUMPI PUSH1 0x40 MLOAD PUSH32 0x8C379A000000000000000000000000000000000000000000000000000000000 DUP2 MSTORE PUSH1 0x20 PUSH1 0x4 DUP3 ADD MSTORE PUSH1 0x2A PUSH1 0x24 DUP3 ADD MSTORE PUSH32 0x5361666545524332303A204552433230206F7065726174696F6E20646964206E PUSH1 0x44 DUP3 ADD MSTORE PUSH32 0x6F74207375636365656400000000000000000000000000000000000000000000 PUSH1 0x64 DUP3 ADD MSTORE PUSH1 0x84 ADD PUSH2 0x4DC JUMP JUMPDEST PUSH1 0x60 PUSH2 0x1909 DUP5 DUP5 PUSH1 0x0 DUP6 PUSH2 0x1911 JUMP JUMPDEST SWAP5 SWAP4 POP POP POP POP JUMP JUMPDEST PUSH1 0x60 DUP3 SELFBALANCE LT ISZERO PUSH2 0x19A3 JUMPI PUSH1 0x40 MLOAD PUSH32 0x8C379A000000000000000000000000000000000000000000000000000000000 DUP2 MSTORE PUSH1 0x20 PUSH1 0x4 DUP3 ADD MSTORE PUSH1 0x26 PUSH1 0x24 DUP3 ADD MSTORE PUSH32 0x416464726573733A20696E73756666696369656E742062616C616E636520666F PUSH1 0x44 DUP3 ADD MSTORE PUSH32 0x722063616C6C0000000000000000000000000000000000000000000000000000 PUSH1 0x64 DUP3 ADD MSTORE PUSH1 0x84 ADD PUSH2 0x4DC JUMP JUMPDEST DUP5 EXTCODESIZE PUSH2 0x1A0B JUMPI PUSH1 0x40 MLOAD PUSH32 0x8C379A000000000000000000000000000000000000000000000000000000000 DUP2 MSTORE PUSH1 0x20 PUSH1 0x4 DUP3 ADD MSTORE PUSH1 0x1D PUSH1 0x24 DUP3 ADD MSTORE PUSH32 0x416464726573733A2063616C6C20746F206E6F6E2D636F6E7472616374000000 PUSH1 0x44 DUP3 ADD MSTORE PUSH1 0x64 ADD PUSH2 0x4DC JUMP JUMPDEST PUSH1 0x0 DUP1 DUP7 PUSH20 0xFFFFFFFFFFFFFFFFFFFFFFFFFFFFFFFFFFFFFFFF AND DUP6 DUP8 PUSH1 0x40 MLOAD PUSH2 0x1A34 SWAP2 SWAP1 PUSH2 0x1BED JUMP JUMPDEST PUSH1 0x0 PUSH1 0x40 MLOAD DUP1 DUP4 SUB DUP2 DUP6 DUP8 GAS CALL SWAP3 POP POP POP RETURNDATASIZE DUP1 PUSH1 0x0 DUP2 EQ PUSH2 0x1A71 JUMPI PUSH1 0x40 MLOAD SWAP2 POP PUSH1 0x1F NOT PUSH1 0x3F RETURNDATASIZE ADD AND DUP3 ADD PUSH1 0x40 MSTORE RETURNDATASIZE DUP3 MSTORE RETURNDATASIZE PUSH1 0x0 PUSH1 0x20 DUP5 ADD RETURNDATACOPY PUSH2 0x1A76 JUMP JUMPDEST PUSH1 0x60 SWAP2 POP JUMPDEST POP SWAP2 POP SWAP2 POP PUSH2 0x1A86 DUP3 DUP3 DUP7 PUSH2 0x1A91 JUMP JUMPDEST SWAP8 SWAP7 POP POP POP POP POP POP POP JUMP JUMPDEST PUSH1 0x60 DUP4 ISZERO PUSH2 0x1AA0 JUMPI POP DUP2 PUSH2 0x1670 JUMP JUMPDEST DUP3 MLOAD ISZERO PUSH2 0x1AB0 JUMPI DUP3 MLOAD DUP1 DUP5 PUSH1 0x20 ADD REVERT JUMPDEST DUP2 PUSH1 0x40 MLOAD PUSH32 0x8C379A000000000000000000000000000000000000000000000000000000000 DUP2 MSTORE PUSH1 0x4 ADD PUSH2 0x4DC SWAP2 SWAP1 PUSH2 0x1C09 JUMP JUMPDEST DUP1 CALLDATALOAD PUSH20 0xFFFFFFFFFFFFFFFFFFFFFFFFFFFFFFFFFFFFFFFF DUP2 AND DUP2 EQ PUSH2 0x1B08 JUMPI PUSH1 0x0 DUP1 REVERT JUMPDEST SWAP2 SWAP1 POP JUMP JUMPDEST PUSH1 0x0 PUSH1 0x20 DUP3 DUP5 SUB SLT ISZERO PUSH2 0x1B1E JUMPI DUP1 DUP2 REVERT JUMPDEST PUSH2 0x1670 DUP3 PUSH2 0x1AE4 JUMP JUMPDEST PUSH1 0x0 DUP1 PUSH1 0x40 DUP4 DUP6 SUB SLT ISZERO PUSH2 0x1B39 JUMPI DUP1 DUP2 REVERT JUMPDEST PUSH2 0x1B42 DUP4 PUSH2 0x1AE4 JUMP JUMPDEST SWAP5 PUSH1 0x20 SWAP4 SWAP1 SWAP4 ADD CALLDATALOAD SWAP4 POP POP POP JUMP JUMPDEST PUSH1 0x0 PUSH1 0x20 DUP3 DUP5 SUB SLT ISZERO PUSH2 0x1B61 JUMPI DUP1 DUP2 REVERT JUMPDEST DUP2 MLOAD DUP1 ISZERO ISZERO DUP2 EQ PUSH2 0x1670 JUMPI DUP2 DUP3 REVERT JUMPDEST PUSH1 0x0 PUSH1 0x20 DUP3 DUP5 SUB SLT ISZERO PUSH2 0x1B81 JUMPI DUP1 DUP2 REVERT JUMPDEST POP CALLDATALOAD SWAP2 SWAP1 POP JUMP JUMPDEST PUSH1 0x0 PUSH1 0x20 DUP3 DUP5 SUB SLT ISZERO PUSH2 0x1B99 JUMPI DUP1 DUP2 REVERT JUMPDEST POP MLOAD SWAP2 SWAP1 POP JUMP JUMPDEST PUSH1 0x0 DUP1 PUSH1 0x0 DUP1 PUSH1 0x0 PUSH1 0xA0 DUP7 DUP9 SUB SLT ISZERO PUSH2 0x1BB7 JUMPI DUP1 DUP2 REVERT JUMPDEST DUP6 CALLDATALOAD SWAP5 POP PUSH1 0x20 DUP7 ADD CALLDATALOAD SWAP4 POP PUSH1 0x40 DUP7 ADD CALLDATALOAD PUSH1 0xFF DUP2 AND DUP2 EQ PUSH2 0x1BD5 JUMPI DUP2 DUP3 REVERT JUMPDEST SWAP5 SWAP8 SWAP4 SWAP7 POP SWAP4 SWAP5 PUSH1 0x60 DUP2 ADD CALLDATALOAD SWAP5 POP PUSH1 0x80 ADD CALLDATALOAD SWAP3 SWAP2 POP POP JUMP JUMPDEST PUSH1 0x0 DUP3 MLOAD PUSH2 0x1BFF DUP2 DUP5 PUSH1 0x20 DUP8 ADD PUSH2 0x1CFF JUMP JUMPDEST SWAP2 SWAP1 SWAP2 ADD SWAP3 SWAP2 POP POP JUMP JUMPDEST PUSH1 0x20 DUP2 MSTORE PUSH1 0x0 DUP3 MLOAD DUP1 PUSH1 0x20 DUP5 ADD MSTORE PUSH2 0x1C28 DUP2 PUSH1 0x40 DUP6 ADD PUSH1 0x20 DUP8 ADD PUSH2 0x1CFF JUMP JUMPDEST PUSH1 0x1F ADD PUSH32 0xFFFFFFFFFFFFFFFFFFFFFFFFFFFFFFFFFFFFFFFFFFFFFFFFFFFFFFFFFFFFFFE0 AND SWAP2 SWAP1 SWAP2 ADD PUSH1 0x40 ADD SWAP3 SWAP2 POP POP JUMP JUMPDEST PUSH1 0x0 DUP3 NOT DUP3 GT ISZERO PUSH2 0x1C6D JUMPI PUSH2 0x1C6D PUSH2 0x1D2B JUMP JUMPDEST POP ADD SWAP1 JUMP JUMPDEST PUSH1 0x0 DUP3 PUSH2 0x1CA6 JUMPI PUSH32 0x4E487B7100000000000000000000000000000000000000000000000000000000 DUP2 MSTORE PUSH1 0x12 PUSH1 0x4 MSTORE PUSH1 0x24 DUP2 REVERT JUMPDEST POP DIV SWAP1 JUMP JUMPDEST PUSH1 0x0 DUP2 PUSH32 0xFFFFFFFFFFFFFFFFFFFFFFFFFFFFFFFFFFFFFFFFFFFFFFFFFFFFFFFFFFFFFFFF DIV DUP4 GT DUP3 ISZERO ISZERO AND ISZERO PUSH2 0x1CE3 JUMPI PUSH2 0x1CE3 PUSH2 0x1D2B JUMP JUMPDEST POP MUL SWAP1 JUMP JUMPDEST PUSH1 0x0 DUP3 DUP3 LT ISZERO PUSH2 0x1CFA JUMPI PUSH2 0x1CFA PUSH2 0x1D2B JUMP JUMPDEST POP SUB SWAP1 JUMP JUMPDEST PUSH1 0x0 JUMPDEST DUP4 DUP2 LT ISZERO PUSH2 0x1D1A JUMPI DUP2 DUP2 ADD MLOAD DUP4 DUP3 ADD MSTORE PUSH1 0x20 ADD PUSH2 0x1D02 JUMP JUMPDEST DUP4 DUP2 GT ISZERO PUSH2 0x17E8 JUMPI POP POP PUSH1 0x0 SWAP2 ADD MSTORE JUMP JUMPDEST PUSH32 0x4E487B7100000000000000000000000000000000000000000000000000000000 PUSH1 0x0 MSTORE PUSH1 0x11 PUSH1 0x4 MSTORE PUSH1 0x24 PUSH1 0x0 REVERT INVALID LOG2 PUSH5 0x6970667358 0x22 SLT KECCAK256 0xC SELFDESTRUCT 0xE3 PUSH29 0xBF6876DDBACF7B9A7C158693AEC15D1037C10A65792742F6FC2673964 PUSH20 0x6F6C634300080400330000000000000000000000 "
		},
		"gasEstimates": {
			"creation": {
				"codeDepositCost": "1513600",
				"executionCost": "infinite",
				"totalCost": "infinite"
			},
			"external": {
				"balanceOf(address)": "1292",
				"earned(address)": "infinite",
				"exit()": "infinite",
				"getReward()": "infinite",
				"getRewardForDuration()": "infinite",
				"lastTimeRewardApplicable()": "1193",
				"lastUpdateTime()": "1051",
				"notifyRewardAmount(uint256)": "infinite",
				"owner()": "1097",
				"periodFinish()": "1050",
				"recoverERC20(address,uint256)": "infinite",
				"renounceOwnership()": "24168",
				"rewardPerToken()": "infinite",
				"rewardPerTokenStored()": "1073",
				"rewardRate()": "1073",
				"rewards(address)": "1265",
				"rewardsDuration()": "1074",
				"rewardsToken()": "1080",
				"setRewardsDuration(uint256)": "23051",
				"stake(uint256)": "infinite",
				"stakeWithPermit(uint256,uint256,uint8,bytes32,bytes32)": "infinite",
				"stakingToken()": "1080",
				"totalSupply()": "1072",
				"transferOwnership(address)": "24435",
				"userRewardPerTokenPaid(address)": "1264",
				"withdraw(uint256)": "infinite"
			}
		},
		"methodIdentifiers": {
			"balanceOf(address)": "70a08231",
			"earned(address)": "008cc262",
			"exit()": "e9fad8ee",
			"getReward()": "3d18b912",
			"getRewardForDuration()": "1c1f78eb",
			"lastTimeRewardApplicable()": "80faa57d",
			"lastUpdateTime()": "c8f33c91",
			"notifyRewardAmount(uint256)": "3c6b16ab",
			"owner()": "8da5cb5b",
			"periodFinish()": "ebe2b12b",
			"recoverERC20(address,uint256)": "8980f11f",
			"renounceOwnership()": "715018a6",
			"rewardPerToken()": "cd3daf9d",
			"rewardPerTokenStored()": "df136d65",
			"rewardRate()": "7b0a47ee",
			"rewards(address)": "0700037d",
			"rewardsDuration()": "386a9525",
			"rewardsToken()": "d1af0c7d",
			"setRewardsDuration(uint256)": "cc1a378f",
			"stake(uint256)": "a694fc3a",
			"stakeWithPermit(uint256,uint256,uint8,bytes32,bytes32)": "ecd9ba82",
			"stakingToken()": "72f702f3",
			"totalSupply()": "18160ddd",
			"transferOwnership(address)": "f2fde38b",
			"userRewardPerTokenPaid(address)": "8b876347",
			"withdraw(uint256)": "2e1a7d4d"
		}
	},
	"abi": [
		{
			"inputs": [
				{
					"internalType": "address",
					"name": "_rewardsToken",
					"type": "address"
				},
				{
					"internalType": "address",
					"name": "_stakingToken",
					"type": "address"
				}
			],
			"stateMutability": "nonpayable",
			"type": "constructor"
		},
		{
			"anonymous": false,
			"inputs": [
				{
					"indexed": true,
					"internalType": "address",
					"name": "previousOwner",
					"type": "address"
				},
				{
					"indexed": true,
					"internalType": "address",
					"name": "newOwner",
					"type": "address"
				}
			],
			"name": "OwnershipTransferred",
			"type": "event"
		},
		{
			"anonymous": false,
			"inputs": [
				{
					"indexed": false,
					"internalType": "address",
					"name": "token",
					"type": "address"
				},
				{
					"indexed": false,
					"internalType": "uint256",
					"name": "amount",
					"type": "uint256"
				}
			],
			"name": "Recovered",
			"type": "event"
		},
		{
			"anonymous": false,
			"inputs": [
				{
					"indexed": false,
					"internalType": "uint256",
					"name": "reward",
					"type": "uint256"
				}
			],
			"name": "RewardAdded",
			"type": "event"
		},
		{
			"anonymous": false,
			"inputs": [
				{
					"indexed": true,
					"internalType": "address",
					"name": "user",
					"type": "address"
				},
				{
					"indexed": false,
					"internalType": "uint256",
					"name": "reward",
					"type": "uint256"
				}
			],
			"name": "RewardPaid",
			"type": "event"
		},
		{
			"anonymous": false,
			"inputs": [
				{
					"indexed": false,
					"internalType": "uint256",
					"name": "newDuration",
					"type": "uint256"
				}
			],
			"name": "RewardsDurationUpdated",
			"type": "event"
		},
		{
			"anonymous": false,
			"inputs": [
				{
					"indexed": true,
					"internalType": "address",
					"name": "user",
					"type": "address"
				},
				{
					"indexed": false,
					"internalType": "uint256",
					"name": "amount",
					"type": "uint256"
				}
			],
			"name": "Staked",
			"type": "event"
		},
		{
			"anonymous": false,
			"inputs": [
				{
					"indexed": true,
					"internalType": "address",
					"name": "user",
					"type": "address"
				},
				{
					"indexed": false,
					"internalType": "uint256",
					"name": "amount",
					"type": "uint256"
				}
			],
			"name": "Withdrawn",
			"type": "event"
		},
		{
			"inputs": [
				{
					"internalType": "address",
					"name": "account",
					"type": "address"
				}
			],
			"name": "balanceOf",
			"outputs": [
				{
					"internalType": "uint256",
					"name": "",
					"type": "uint256"
				}
			],
			"stateMutability": "view",
			"type": "function"
		},
		{
			"inputs": [
				{
					"internalType": "address",
					"name": "account",
					"type": "address"
				}
			],
			"name": "earned",
			"outputs": [
				{
					"internalType": "uint256",
					"name": "",
					"type": "uint256"
				}
			],
			"stateMutability": "view",
			"type": "function"
		},
		{
			"inputs": [],
			"name": "exit",
			"outputs": [],
			"stateMutability": "nonpayable",
			"type": "function"
		},
		{
			"inputs": [],
			"name": "getReward",
			"outputs": [],
			"stateMutability": "nonpayable",
			"type": "function"
		},
		{
			"inputs": [],
			"name": "getRewardForDuration",
			"outputs": [
				{
					"internalType": "uint256",
					"name": "",
					"type": "uint256"
				}
			],
			"stateMutability": "view",
			"type": "function"
		},
		{
			"inputs": [],
			"name": "lastTimeRewardApplicable",
			"outputs": [
				{
					"internalType": "uint256",
					"name": "",
					"type": "uint256"
				}
			],
			"stateMutability": "view",
			"type": "function"
		},
		{
			"inputs": [],
			"name": "lastUpdateTime",
			"outputs": [
				{
					"internalType": "uint256",
					"name": "",
					"type": "uint256"
				}
			],
			"stateMutability": "view",
			"type": "function"
		},
		{
			"inputs": [
				{
					"internalType": "uint256",
					"name": "reward",
					"type": "uint256"
				}
			],
			"name": "notifyRewardAmount",
			"outputs": [],
			"stateMutability": "nonpayable",
			"type": "function"
		},
		{
			"inputs": [],
			"name": "owner",
			"outputs": [
				{
					"internalType": "address",
					"name": "",
					"type": "address"
				}
			],
			"stateMutability": "view",
			"type": "function"
		},
		{
			"inputs": [],
			"name": "periodFinish",
			"outputs": [
				{
					"internalType": "uint256",
					"name": "",
					"type": "uint256"
				}
			],
			"stateMutability": "view",
			"type": "function"
		},
		{
			"inputs": [
				{
					"internalType": "address",
					"name": "tokenAddress",
					"type": "address"
				},
				{
					"internalType": "uint256",
					"name": "tokenAmount",
					"type": "uint256"
				}
			],
			"name": "recoverERC20",
			"outputs": [],
			"stateMutability": "nonpayable",
			"type": "function"
		},
		{
			"inputs": [],
			"name": "renounceOwnership",
			"outputs": [],
			"stateMutability": "nonpayable",
			"type": "function"
		},
		{
			"inputs": [],
			"name": "rewardPerToken",
			"outputs": [
				{
					"internalType": "uint256",
					"name": "",
					"type": "uint256"
				}
			],
			"stateMutability": "view",
			"type": "function"
		},
		{
			"inputs": [],
			"name": "rewardPerTokenStored",
			"outputs": [
				{
					"internalType": "uint256",
					"name": "",
					"type": "uint256"
				}
			],
			"stateMutability": "view",
			"type": "function"
		},
		{
			"inputs": [],
			"name": "rewardRate",
			"outputs": [
				{
					"internalType": "uint256",
					"name": "",
					"type": "uint256"
				}
			],
			"stateMutability": "view",
			"type": "function"
		},
		{
			"inputs": [
				{
					"internalType": "address",
					"name": "",
					"type": "address"
				}
			],
			"name": "rewards",
			"outputs": [
				{
					"internalType": "uint256",
					"name": "",
					"type": "uint256"
				}
			],
			"stateMutability": "view",
			"type": "function"
		},
		{
			"inputs": [],
			"name": "rewardsDuration",
			"outputs": [
				{
					"internalType": "uint256",
					"name": "",
					"type": "uint256"
				}
			],
			"stateMutability": "view",
			"type": "function"
		},
		{
			"inputs": [],
			"name": "rewardsToken",
			"outputs": [
				{
					"internalType": "contract IERC20",
					"name": "",
					"type": "address"
				}
			],
			"stateMutability": "view",
			"type": "function"
		},
		{
			"inputs": [
				{
					"internalType": "uint256",
					"name": "_rewardsDuration",
					"type": "uint256"
				}
			],
			"name": "setRewardsDuration",
			"outputs": [],
			"stateMutability": "nonpayable",
			"type": "function"
		},
		{
			"inputs": [
				{
					"internalType": "uint256",
					"name": "amount",
					"type": "uint256"
				}
			],
			"name": "stake",
			"outputs": [],
			"stateMutability": "nonpayable",
			"type": "function"
		},
		{
			"inputs": [
				{
					"internalType": "uint256",
					"name": "amount",
					"type": "uint256"
				},
				{
					"internalType": "uint256",
					"name": "deadline",
					"type": "uint256"
				},
				{
					"internalType": "uint8",
					"name": "v",
					"type": "uint8"
				},
				{
					"internalType": "bytes32",
					"name": "r",
					"type": "bytes32"
				},
				{
					"internalType": "bytes32",
					"name": "s",
					"type": "bytes32"
				}
			],
			"name": "stakeWithPermit",
			"outputs": [],
			"stateMutability": "nonpayable",
			"type": "function"
		},
		{
			"inputs": [],
			"name": "stakingToken",
			"outputs": [
				{
					"internalType": "contract IERC20",
					"name": "",
					"type": "address"
				}
			],
			"stateMutability": "view",
			"type": "function"
		},
		{
			"inputs": [],
			"name": "totalSupply",
			"outputs": [
				{
					"internalType": "uint256",
					"name": "",
					"type": "uint256"
				}
			],
			"stateMutability": "view",
			"type": "function"
		},
		{
			"inputs": [
				{
					"internalType": "address",
					"name": "newOwner",
					"type": "address"
				}
			],
			"name": "transferOwnership",
			"outputs": [],
			"stateMutability": "nonpayable",
			"type": "function"
		},
		{
			"inputs": [
				{
					"internalType": "address",
					"name": "",
					"type": "address"
				}
			],
			"name": "userRewardPerTokenPaid",
			"outputs": [
				{
					"internalType": "uint256",
					"name": "",
					"type": "uint256"
				}
			],
			"stateMutability": "view",
			"type": "function"
		},
		{
			"inputs": [
				{
					"internalType": "uint256",
					"name": "amount",
					"type": "uint256"
				}
			],
			"name": "withdraw",
			"outputs": [],
			"stateMutability": "nonpayable",
			"type": "function"
		}
	]
}